:100000000C945C000C9479000C9479000C947900A9
:100010000C9479000C9479000C9479000C9479007C
:100020000C9479000C9479000C9479000C9479006C
:100030000C9479000C9479000C9479000C9479005C
:100040000C9418040C9479000C9479000C947900A9
:100050000C9479000C9479000C9479000C9479003C
:100060000C9479000C947900000000080002010053
:100070000003040700000000000000000000000072
:10008000250028002B0000000000240027002A0083
:10009000040404040404040402020202020203032E
:1000A0000303030301020408102040800102040836
:1000B000102001020408102011241FBECFEFD8E049
:1000C000DEBFCDBF11E0A0E0B1E0E0E0FAE102C0A8
:1000D00005900D92AC32B107D9F721E0ACE2B1E066
:1000E00001C01D92A533B207E1F70E9462040C948F
:1000F000FE0C0C94000090E0FC01EC55FF4F2491A5
:1001000080579F4FFC018491882399F090E0880FDD
:10011000991FFC01EA57FF4FA591B491FC01E458E7
:10012000FF4F859194918FB7F894EC91E22BEC936B
:100130008FBF089590E0FC01E859FF4F2491FC0126
:10014000EC55FF4F3491FC01E057FF4FE491EE2353
:10015000C9F0222339F0233001F1A8F4213019F13C
:10016000223029F1F0E0EE0FFF1FE458FF4FA59178
:10017000B4918FB7F894EC91611126C030953E236D
:100180003C938FBF08952730A9F02830C9F0243060
:1001900049F7809180008F7D03C0809180008F7728
:1001A00080938000DFCF84B58F7784BDDBCF84B5AB
:1001B0008F7DFBCF8091B0008F778093B000D2CF3E
:1001C0008091B0008F7DF9CF3E2BDACF3FB7F89406
:1001D0008091310190913201A0913301B0913401AD
:1001E00026B5A89B05C02F3F19F00196A11DB11D92
:1001F0003FBFBA2FA92F982F8827BC01CD01620FCE
:10020000711D811D911D42E0660F771F881F991F88
:100210004A95D1F708958F929F92AF92BF92CF9255
:10022000DF92EF92FF926B017C010E94E6004B018E
:100230005C01C114D104E104F104B9F00E94E600AC
:10024000681979098A099B09683E734081059105FF
:1002500080F321E0C21AD108E108F10888EE880E87
:1002600083E0981EA11CB11CE4CFFF90EF90DF90BB
:10027000CF90BF90AF909F908F900895CF93DF93D2
:10028000C4E0D1E08881229661E00E949A0081E07A
:10029000C432D807B9F7DF91CF910895CF93DF9398
:1002A000C4E0D1E08881229660E00E949A0081E05B
:1002B000C432D807B9F761E081E10E949A0061E099
:1002C00080E10E949A0061E08FE00E949A0061E064
:1002D0008EE0DF91CF910C949A00CF93DF930E9430
:1002E0004E01C6E0D0E061E08DE00E949A006CE330
:1002F00070E080E090E00E940B0161E08CE00E94E1
:100300009A006CE370E080E090E00E940B0161E0F5
:100310008BE00E949A006CE370E080E090E00E9425
:100320000B0161E08AE00E949A006CE370E080E0DB
:1003300090E00E940B0161E086E00E949A006CE36D
:1003400070E080E090E00E940B0161E082E00E949A
:100350009A006CE370E080E090E00E940B0161E0A5
:1003600082E10E949A006CE370E080E090E00E94DD
:100370000B0161E083E10E949A006CE370E080E091
:1003800090E00E940B0161E080E00E949A006CE323
:1003900070E080E090E00E940B0161E081E00E944B
:1003A0009A006CE370E080E090E00E940B0161E055
:1003B00085E00E949A006CE370E080E090E00E948B
:1003C0000B0161E089E00E949A006CE370E080E03C
:1003D00090E00E940B0161E088E00E949A006CE3CB
:1003E00070E080E090E00E940B0161E087E00E94F5
:1003F0009A006CE370E080E090E00E940B0161E005
:1004000083E00E949A006CE370E080E090E00E943C
:100410000B0161E084E00E949A006CE370E080E0F0
:1004200090E00E940B0160E084E00E949A006CE37F
:1004300070E080E090E00E940B0160E083E00E94A9
:100440009A006CE370E080E090E00E940B0160E0B5
:1004500087E00E949A006CE370E080E090E00E94E8
:100460000B0160E088E00E949A006CE370E080E09D
:1004700090E00E940B0160E089E00E949A006CE32A
:1004800070E080E090E00E940B0160E085E00E9457
:100490009A006CE370E080E090E00E940B0160E065
:1004A00081E00E949A006CE370E080E090E00E949E
:1004B0000B0160E080E00E949A006CE370E080E055
:1004C00090E00E940B0160E083E10E949A006CE3DF
:1004D00070E080E090E00E940B0160E082E10E9409
:1004E0009A006CE370E080E090E00E940B0160E015
:1004F00082E00E949A006CE370E080E090E00E944D
:100500000B0160E086E00E949A006CE370E080E0FE
:1005100090E00E940B0160E08AE00E949A006CE388
:1005200070E080E090E00E940B0160E08BE00E94B0
:100530009A006CE370E080E090E00E940B0160E0C4
:100540008CE00E949A006CE370E080E090E00E94F2
:100550000B0160E08DE00E949A006CE370E080E0A7
:1005600090E00E940B0161E08DE00E949A006CE334
:1005700070E080E090E00E940B0161E089E00E9461
:100580009A006CE370E080E090E00E940B0161E073
:1005900085E00E949A006CE370E080E090E00E94A9
:1005A0000B0161E081E00E949A006CE370E080E062
:1005B00090E00E940B0161E080E00E949A006CE3F1
:1005C00070E080E090E00E940B0161E083E10E9416
:1005D0009A006CE370E080E090E00E940B0161E023
:1005E00082E10E949A006CE370E080E090E00E945B
:1005F0000B0161E082E00E949A006CE370E080E011
:1006000090E00E940B0161E086E00E949A006CE39A
:1006100070E080E090E00E940B0161E08AE00E94BF
:100620009A006CE370E080E090E00E940B0161E0D2
:100630008BE00E949A006CE370E080E090E00E9402
:100640000B0161E08CE00E949A006CE370E080E0B6
:1006500090E00E940B0161E088E00E949A006CE348
:1006600070E080E090E00E940B0161E084E00E9475
:100670009A006CE370E080E090E00E940B0161E082
:1006800083E00E949A006CE370E080E090E00E94BA
:100690000B0161E087E00E949A006CE370E080E06B
:1006A00090E00E940B0160E087E00E949A006CE3FA
:1006B00070E080E090E00E940B0160E083E00E9427
:1006C0009A006CE370E080E090E00E940B0160E033
:1006D00084E00E949A006CE370E080E090E00E9469
:1006E0000B0160E088E00E949A006CE370E080E01B
:1006F00090E00E940B0160E08CE00E949A006CE3A5
:1007000070E080E090E00E940B0160E08BE00E94CE
:100710009A006CE370E080E090E00E940B0160E0E2
:100720008AE00E949A006CE370E080E090E00E9412
:100730000B0160E086E00E949A006CE370E080E0CC
:1007400090E00E940B0160E082E00E949A006CE35E
:1007500070E080E090E00E940B0160E082E10E9486
:100760009A006CE370E080E090E00E940B0160E092
:1007700083E10E949A006CE370E080E090E00E94C8
:100780000B0160E080E00E949A006CE370E080E082
:1007900090E00E940B0160E081E00E949A006CE30F
:1007A00070E080E090E00E940B0160E085E00E9434
:1007B0009A006CE370E080E090E00E940B0160E042
:1007C00089E00E949A006CE370E080E090E00E9473
:1007D0000B0160E08DE00E949A006CE370E080E025
:1007E00090E00E940B01219709F07DCDDF91CF9120
:1007F0000895CF93DF93C4E0D1E08881229661E031
:100800000E949A0081E0C432D807B9F760E081E124
:100810000E949A0060E080E10E949A0060E08FE010
:100820000E949A0060E08EE0DF91CF910C949A00D4
:100830001F920F920FB60F9211242F933F938F9315
:100840009F93AF93BF9380912D0190912E01A09122
:100850002F01B091300130912C0123E0230F2D376F
:1008600058F50196A11DB11D20932C0180932D01F7
:1008700090932E01A0932F01B0933001809131010C
:1008800090913201A0913301B09134010196A11DE4
:10089000B11D8093310190933201A0933301B09345
:1008A0003401BF91AF919F918F913F912F910F9004
:1008B0000FBE0F901F90189526E8230F0296A11DDA
:1008C000B11DD2CFCF93DF93CDB7DEB728970FB648
:1008D000F894DEBF0FBECDBF789484B5826084BD2E
:1008E00084B5816084BD85B5826085BD85B5816034
:1008F00085BD80916E00816080936E0010928100B2
:10090000809181008260809381008091810081606C
:10091000809381008091800081608093800080912D
:10092000B10084608093B1008091B00081608093B9
:10093000B00080917A00846080937A0080917A0080
:10094000826080937A0080917A00816080937A003F
:1009500080917A00806880937A001092C10024E030
:1009600031E03A832983E981FA8180813296FA83E2
:10097000E9830E947B0029813A812452314099F712
:1009800081E10E947B0080E10E947B008FE00E9459
:100990007B008EE00E947B0082E480937C0080914B
:1009A0007A00806480937A0080917A0086FDFCCF83
:1009B0008091780060917900762F682F072E000CC7
:1009C000880B990B611571058105910511F00E9445
:1009D000920C0E94F90336E9C32ED12CE12CF12CA4
:1009E0000E944E01C701B6010E940B010E94F9034B
:1009F000C701B6010E940B0195E0C91AD108E108B0
:100A0000F10871F70E944E016AEF70E080E090E01B
:100A10000E940B01E5E0F0E0FC83EB830E944E01B5
:100A20000CE211E0780122E0E21AF10860E0F7013F
:100A300080810E949A006BE470E080E090E00E9468
:100A40000B01F4E2EF16F1E0FF0609F0CBC67801E6
:100A500026E0E20EF11C04E211E0F80180810E5F55
:100A60001F4F61E00E949A006BE470E080E090E02C
:100A70000E940B010E151F0581F724E2E22E21E0F2
:100A8000F22EF7018081F2E0EF0EF11C60E00E948F
:100A90009A006BE470E080E090E00E940B01E016A9
:100AA000F10679F72CE231E03A83298329803A80F4
:100AB00032E0231A310861E0F10180810E949A003E
:100AC0006BE470E080E090E00E940B01F4E22F16EE
:100AD000F1E03F0609F088C62B813C8121503109A5
:100AE0003C832B83232B09F099CF60E081E10E94A6
:100AF0009A0060E080E10E949A0060E08FE00E942E
:100B00009A0060E08EE00E949A0005E010E0E98023
:100B1000FA80F6E0EF0EF11C84E291E09C838B8377
:100B2000EB81FC81D0803296FC83EB8361E08D2DDC
:100B30000E949A006BE470E080E090E00E940B015C
:100B400060E08D2D0E949A002B813C812E153F057F
:100B500039F79CE2C92E91E0D92E32E0C31AD108B0
:100B6000F601B08061E08B2D0E949A006BE470E08A
:100B700080E090E00E940B0160E08B2D0E949A00C3
:100B8000F4E2CF16F1E0DF0641F784E2482E81E07F
:100B9000582EF2018081F2E04F0E511C61E00E945C
:100BA0009A006BE470E080E090E00E940B012B81E2
:100BB0003C814216530669F78CE291E09C838B835B
:100BC000EB81FC813297FC83EB8360E080810E94A3
:100BD0009A006BE470E080E090E00E940B012B81B2
:100BE0003C812452314061F70150110909F094CF42
:100BF0000E946D010E94F90361E081E10E949A0068
:100C000061E080E10E949A0061E08FE00E949A001A
:100C100061E08EE00E949A0003E0E02EF12CE4E017
:100C2000F1E0FC83EB83EB81FC8180813296FC83D5
:100C3000EB8360E00E949A006BE470E080E090E05B
:100C40000E940B012B813C812C50314061F7ECE07C
:100C5000F1E0FC83EB83EB81FC8180813296FC83A5
:100C6000EB8360E00E949A006BE470E080E090E02B
:100C70000E940B012B813C812451314061F7E4E15A
:100C8000F1E0FC83EB83EB81FC8180813296FC8375
:100C9000EB8360E00E949A006BE470E080E090E0FB
:100CA0000E940B012B813C812C51314061F7ECE11A
:100CB000F1E0FC83EB83EB81FC8180813296FC8345
:100CC000EB8360E00E949A006BE470E080E090E0CB
:100CD0000E940B012B813C812452314061F714E0CA
:100CE000C12E11E0D12EF6018081F2E0CF0ED11C91
:100CF00061E00E949A006BE470E080E090E00E9466
:100D00000B012CE0C21621E0D20669F70CE011E0DD
:100D1000F80180810E5F1F4F61E00E949A006BE432
:100D200070E080E090E00E940B01F1E004311F07C9
:100D300079F724E131E038872F83EF81F8858081CE
:100D40003296F887EF8361E00E949A006BE470E0CE
:100D500080E090E00E940B012F8138852C513140BA
:100D600061F7BCE1AB2EB1E0BB2EF5018081F2E072
:100D7000AF0EB11C61E00E949A006BE470E080E06D
:100D800090E00E940B0124E2A21621E0B20669F76E
:100D9000ACE1AA2EA1E0BA2EF5018081F2E0AF0EFF
:100DA000B11C60E00E949A006BE470E080E090E08B
:100DB0000E940B0124E2A21621E0B20669F7F4E1D9
:100DC000AF2EF1E0BF2EF5018081F2E0AF0EB11C35
:100DD00060E00E949A006BE470E080E090E00E9486
:100DE0000B012F813885A216B30669F7ECE0AE2E11
:100DF000E1E0BE2EF5018081F2E0AF0EB11C60E0B3
:100E00000E949A006BE470E080E090E00E940B0189
:100E1000A016B10679F774E0A72E71E0B72EF501A0
:100E20008081F2E0AF0EB11C60E00E949A006BE49A
:100E300070E080E090E00E940B01AC14BD0479F7F3
:100E40006CE1A62E61E0B62EF5018081F2E0AF0ED6
:100E5000B11C61E00E949A006BE470E080E090E0D9
:100E60000E940B0124E2A21621E0B20669F754E1C8
:100E7000A52E51E0B52EF5018081F2E0AF0EB11C38
:100E800061E00E949A006BE470E080E090E00E94D4
:100E90000B012F813885A216B30669F74CE0A42E0A
:100EA00041E0B42EF5018081F2E0AF0EB11C61E0AB
:100EB0000E949A006BE470E080E090E00E940B01D9
:100EC000A016B10679F734E0A32E31E0B32EF50178
:100ED0008081F2E0AF0EB11C61E00E949A006BE4E9
:100EE00070E080E090E00E940B01AC14BD0479F743
:100EF00021E0E21AF10809F092CE6AEF70E080E09A
:100F000090E00E940B0128EC822E912CA12CB12C98
:100F10000E94F9039CE2E92E91E0F92E32E0E31AF7
:100F2000F10861E0F70180810E949A0060E088E0AA
:100F30000E949A0060E087E00E949A0060E084E0EE
:100F40000E949A0060E083E00E949A0060E08DE0D9
:100F50000E949A00C501B4010E940B0161E08DE07E
:100F60000E949A0060E089E00E949A00C501B401E5
:100F70000E940B0161E089E00E949A0060E085E038
:100F80000E949A00C501B4010E940B0161E085E056
:100F90000E949A0060E081E00E949A00C501B401BD
:100FA0000E940B0161E081E00E949A0060E080E015
:100FB0000E949A00C501B4010E940B0161E080E02B
:100FC0000E949A0060E082E10E949A00C501B4018B
:100FD0000E940B0161E082E10E949A0060E083E1DF
:100FE0000E949A00C501B4010E940B0161E083E1F7
:100FF0000E949A0060E082E00E949A00C501B4015C
:101000000E940B0161E082E00E949A0060E086E0AD
:101010000E949A00C501B4010E940B0161E086E0C4
:101020000E949A0060E08AE00E949A00C501B40123
:101030000E940B0161E08AE00E949A0060E08BE070
:101040000E949A00C501B4010E940B0161E08BE08F
:101050000E949A0060E08CE00E949A00C501B401F1
:101060000E940B0161E08CE00E949A00F4E2EF160E
:10107000F1E0FF0609F052CF22E3821A9108A1089D
:10108000B10809F045CF0E94F9030E94F90387E7F0
:10109000E82EFF24F3940E94430C4B015C010E9454
:1010A000430C6B837C838D839E83C501B40124E054
:1010B00030E040E050E00E949B0C660F771F6C5DB3
:1010C0007E4FFB01B08061E08B2D0E949A006B8106
:1010D0007C818D819E8120E130E040E050E00E94E3
:1010E0009B0C660F771F6C5F7E4FFB01A08060E05A
:1010F0008A2D0E949A006AE070E080E090E00E94F1
:101100000B0160E08B2D0E949A0061E08A2D0E9405
:101110009A006AE070E080E090E00E940B01F1E04C
:10112000EF1AF10809F0B7CF0E94F903FEE1EF2EA4
:10113000F12C0E94430C20E130E040E050E00E949E
:101140009B0C660F771F6C5F7E4FFB01B08060E0E9
:101150008B2D0E949A0061E081E10E949A0066E96D
:1011600070E080E090E00E940B0160E081E10E946D
:101170009A0061E080E10E949A0064E670E080E0FD
:1011800090E00E940B0160E080E10E949A0061E023
:101190008FE00E949A0064E670E080E090E00E9498
:1011A0000B0160E08FE00E949A0061E08EE00E94F7
:1011B0009A0066E970E080E090E00E940B0160E038
:1011C0008EE00E949A0061E08B2D0E949A00F1E06F
:1011D000EF1AF10809F0ADCF0E94F90375E0E72E90
:1011E000F12C64E0A62E61E0B62EF5018081F2E0DC
:1011F000AF0EB11C60E00E949A00A016B106A9F7DC
:1012000061E08EE00E949A0061E08FE00E949A0007
:101210006EE571E080E090E00E940B010E94F9030E
:101220005CE0A52E51E0B52EF5018081F2E0AF0E15
:10123000B11C60E00E949A002F813885A216B30687
:1012400099F761E080E10E949A0061E08FE00E94DE
:101250009A006EE571E080E090E00E940B010E9430
:10126000F90344E1A42E41E0B42EF5018081F2E0BF
:10127000AF0EB11C60E00E949A0024E2A21621E0A9
:10128000B20699F761E081E10E949A0061E080E195
:101290000E949A006EE571E080E090E00E940B01F0
:1012A0000E94F9033CE0A32E31E0B32EF5018081CA
:1012B000F2E0AF0EB11C60E00E949A002F813885E9
:1012C000A216B30699F761E081E10E949A0061E0FD
:1012D00080E10E949A006EE571E080E090E00E945B
:1012E0000B010E94F90324E0A22E21E0B22EF501A9
:1012F0008081F2E0AF0EB11C60E00E949A00A0165F
:10130000B106A9F761E081E10E949A0061E080E105
:101310000E949A006EE571E080E090E00E940B016F
:101320000E94F9039CE0A92E91E0B92EF50180817D
:10133000F2E0AF0EB11C60E00E949A002F81388568
:10134000A216B30699F761E080E10E949A0061E07D
:101350008FE00E949A006EE571E080E090E00E94CC
:101360000B010E94F90384E1A82E81E0B82EF5015B
:101370008081F2E0AF0EB11C60E00E949A0024E28E
:10138000A21621E0B20699F761E08FE00E949A0070
:1013900061E08EE00E949A006EE571E080E090E0EE
:1013A0000E940B010E94F903BCE0AB2EB1E0BB2E02
:1013B000F5018081F2E0AF0EB11C60E00E949A005E
:1013C0002F813885A216B30699F761E08FE00E945D
:1013D0009A0061E08EE00E949A006EE571E080E084
:1013E00090E00E940B010E94F90331E0E31AF1083A
:1013F00009F0F7CEA4E0EA2EA1E0FA2EF7018081F1
:10140000F2E0EF0EF11C60E00E949A00E016F10697
:10141000A9F761E08EE00E949A0061E08FE00E94EF
:101420009A006EE571E080E090E00E940B010E945E
:10143000F9030E94F903F5E08F2E912CECE2EE2ED9
:10144000E1E0FE2E22E0E21AF108F701708061E08F
:10145000872D0E949A0074E0A72E71E0B72EF50147
:101460006080F2E0AF0EB11C60E0862D0E949A0011
:101470006FE070E080E090E00E940B0161E0862D5B
:101480000E949A006FE070E080E090E00E940B0103
:10149000AC14BD0421F760E0872D0E949A0024E27D
:1014A000E21621E0F20671F664E2E62E61E0F62E25
:1014B000F7017080F2E0EF0EF11C61E0872D0E94D1
:1014C0009A005CE0A52E51E0B52EF5016080F2E0B7
:1014D000AF0EB11C60E0862D0E949A006FE070E0B4
:1014E00080E090E00E940B0161E0862D0E949A004E
:1014F0006FE070E080E090E00E940B01A016B10662
:1015000021F760E0872D0E949A00E414F50481F62B
:101510004CE2E42E41E0F42E22E0E21AF108F70159
:10152000708061E0872D0E949A0034E1A32E31E0A3
:10153000B32EF5016080F2E0AF0EB11C60E0862DA5
:101540000E949A006FE070E080E090E00E940B0142
:1015500061E0862D0E949A006FE070E080E090E0EC
:101560000E940B012F813885A216B30611F760E0A7
:10157000872D0E949A0034E2E31631E0F30661F60B
:1015800024E2E22E21E0F22EF7017080F2E0EF0E6D
:10159000F11C61E0872D0E949A009CE1A92E91E048
:1015A000B92EF5016080F2E0AF0EB11C60E0862D2F
:1015B0000E949A006FE070E080E090E00E940B01D2
:1015C00061E0862D0E949A006FE070E080E090E07C
:1015D0000E940B0124E2A21621E0B20611F760E09E
:1015E000872D0E949A00E414F50471F631E0831A05
:1015F000910809F023CF0E94F90389819A810A9703
:101600009A83898306E010E061E0F10186810E94FF
:101610009A000E943E0160E08DE00E949A0060E026
:1016200088E00E949A0060E083E00E949A0060E0F7
:1016300082E10E949A006AE570E080E090E00E94FA
:101640000B010E943E0160E089E00E949A0060E088
:1016500088E00E949A0060E083E00E949A0060E0C7
:1016600082E00E949A006AE570E080E090E00E94CB
:101670000B010E943E0160E087E00E949A0060E05A
:1016800086E00E949A0060E085E00E949A0060E097
:1016900084E00E949A006AE570E080E090E00E9499
:1016A0000B010E943E0160E08AE00E949A0060E027
:1016B00087E00E949A0060E084E00E949A0060E067
:1016C00081E00E949A006AE570E080E090E00E946C
:1016D0000B010E943E0160E08BE00E949A0060E0F6
:1016E00087E00E949A0060E084E00E949A0060E037
:1016F00080E00E949A006AE570E080E090E00E943D
:101700000B010E943E0160E08CE00E949A0060E0C4
:1017100088E00E949A0060E083E00E949A0060E006
:1017200083E10E949A006AE570E080E090E00E9408
:101730000B010150110909F067CFF2E02F1A3108AF
:1017400029813A812215330509F05CCF0E943E01C0
:1017500060E08DE00E949A0060E088E00E949A00BC
:1017600060E083E00E949A0060E082E10E949A00BB
:101770006AE570E080E090E00E940B010E946D013C
:101780000E944E0182E3C82ED12CE12CF12C0E9444
:10179000F903C701B6010E940B010E944E01C70167
:1017A000B60162537109810991090E940B0135E06C
:1017B000C30ED11CE11CF11C88ECC816D104E10455
:1017C000F10429F70E94F90360ED77E080E090E0F2
:1017D0000E940B01E0E0F0E0EF2B09F4FAC80E9450
:1017E0000000F7C887011EC93A8229825FC98F921B
:1017F0009F92AF92BF92CF92DF92EF92FF92CF93E0
:10180000DF93EC01688179818A819B816115710583
:101810008105910521F464E279ED8BE597E02DE1F6
:1018200033EF41E050E00E949B0C49015A019B01BB
:10183000AC01A7EAB1E40E94BA0C6B017C01ACEEEA
:10184000B4EFA50194010E94C80CC60ED71EE81E75
:10185000F91EF7FE06C081E0C81AD108E10880E849
:10186000F80AC882D982EA82FB82C701B6019F7753
:10187000DF91CF91FF90EF90DF90CF90BF90AF902E
:101880009F908F9008958F929F92AF92BF92CF9228
:10189000DF92EF92FF9260910001709101018091BF
:1018A000020190910301611571058105910521F4F3
:1018B00064E279ED8BE597E02DE133EF41E050E014
:1018C0000E949B0C49015A019B01AC01A7EAB1E4BB
:1018D0000E94BA0C6B017C01ACEEB4EFA50194013F
:1018E0000E94C80CC60ED71EE81EF91EF7FE06C0E1
:1018F00081E0C81AD108E10880E8F80AC092000126
:10190000D0920101E0920201F0920301C701B601F9
:101910009F77FF90EF90DF90CF90BF90AF909F9018
:101920008F900895609300017093010180930201EC
:10193000909303010895052E97FB1EF400940E94D6
:10194000B20C57FD07D00E94CD0C07FC03D04EF41B
:101950000C94B20C50954095309521953F4F4F4FC8
:101960005F4F089590958095709561957F4F8F4F4B
:101970009F4F08950E94EF0CA59F900DB49F900D6E
:10198000A49F800D911D11240895B7FF0C94BA0CEB
:101990000E94BA0C821B930B0895A1E21A2EAA1B77
:1019A000BB1BFD010DC0AA1FBB1FEE1FFF1FA2170F
:1019B000B307E407F50720F0A21BB30BE40BF50B0C
:1019C000661F771F881F991F1A9469F76095709595
:1019D000809590959B01AC01BD01CF010895A29F18
:1019E000B001B39FC001A39F700D811D1124911DF3
:1019F000B29F700D811D1124911D0895F894FFCFA1
:101A0000010000000D000C000B000A000900080096
:101A100007000600050004000300020001000000AA
:0C1A200013001200110010000F000E0057
:00000001FF
